:100000000C94E0000C9408010C9408010C94080175
:100010000C9408010C9408010C9408010C9408013C
:100020000C9408010C9408010C9408010C9408012C
:100030000C9408010C9408010C9408010C9408011C
:100040000C9485020C9408010C9443050C941D0536
:100050000C9408010C9408010C9408010C940801FC
:100060000C9408010C94080100407A10F35A00A087
:10007000724E18090010A5D4E80000E87648170071
:1000800000E40B54020000CA9A3B000000E1F505B1
:10009000000080969800000040420F000000A086FB
:1000A00001000000102700000000E803000000002D
:1000B0006400000000000A000000000001000000D1
:1000C00000002C76D888DC674F0823DFC1DFAE59EB
:1000D000E1B1B796E5E3E453C63AE651997696E87E
:1000E000E6C28426EB898C9B62ED407C6FFCEFBC02
:1000F0009C9F40F2BAA56FA5F490055A2AF75C932D
:100100006B6CF9676DC11BFCE0E40D47FEF520E662
:10011000B500D0ED902E0300943577050080841E45
:10012000080000204E0A000000C80C333333330FA0
:10013000986E12831141EF8D2114893BE65516CF3D
:10014000FEE6DB18D1844B381BF77C1D901DA4BB49
:10015000E424203284725E228100C9F124ECA1E5FE
:100160003D2700000000240027002A0000000000B6
:10017000250028002B000000000023002600290095
:100180000000000800020100000304070000000056
:100190000000000004040404040404040202020237
:1001A000020203030303030301020408102040803A
:1001B000010204081020010204081020C30FBB0F25
:1001C00011241FBECFEFD8E0DEBFCDBF22E0AAEAE8
:1001D000B1E001C01D92A73EB207E1F711E0A0E037
:1001E000B1E0E4E2FFE202C005900D92AA3AB10745
:1001F000D9F710E0CFEDD0E004C02197FE010E94B6
:100200008315CE3DD107C9F70E94B90B0C94851711
:100210000C940000CF92DF92EF92FF920F931F9306
:10022000CF93DF936C017A018B01C0E0D0E0CE1553
:10023000DF0581F0D8016D918D01D601ED91FC9122
:100240000190F081E02DC6010995892B11F02196CE
:10025000EECF7E01C701DF91CF911F910F91FF90EB
:10026000EF90DF90CF900895FC01538D448D252FA2
:1002700030E0842F90E0821B930B541710F0CF9640
:10028000089501970895FC01918D828D981761F072
:10029000828DDF01A80FB11D5D968C91928D9F5FBD
:1002A0009F73928F90E008958FEF9FEF0895FC0168
:1002B000918D828D981731F0828DE80FF11D858D1B
:1002C00090E008958FEF9FEF0895FC01918D228DAE
:1002D000892F90E0805C9F4F821B91098F73992733
:1002E000089587EF91E00E94650121E0892B09F4D0
:1002F00020E0822F0895FC01848DDF01A80FB11D3D
:10030000A35ABF4F2C91848D90E001968F7399274B
:10031000848FA689B7892C93A089B1898C91837029
:1003200080648C93938D848D981306C00288F38922
:10033000E02D80818F7D80830895EF92FF920F934F
:100340001F93CF93DF93EC0181E0888F9B8D8C8D81
:10035000981305C0E889F989808185FD26C0F62EAD
:100360000B8D10E00F5F1F4F0F731127E02E8C8D48
:10037000E8120CC00FB607FCFACFE889F989808132
:1003800085FFF5CFCE010E947B01F1CF8B8DFE0161
:10039000E80FF11DE35AFF4FF0829FB7F8940B8FDF
:1003A000EA89FB89808180620AC09FB7F894EE8950
:1003B000FF896083E889F989808183708064808304
:1003C0009FBF81E090E0DF91CF911F910F91FF904F
:1003D000EF900895CF93DF93EC01888D8823C9F0C7
:1003E000EA89FB89808185FD05C0A889B9898C913E
:1003F00086FD0FC00FB607FCF5CF808185FFF2CFD9
:10040000A889B9898C9185FFEDCFCE010E947B012F
:10041000E7CFDF91CF91089580E090E0892B29F01C
:100420000E94710181110C9400000895089580E0EC
:1004300090E00895CF93DF93EC0160E08E810E94FD
:10044000B20861E08E810E94B20860E08E810E9455
:10045000B2088BE891E00197F1F7DF91CF91089511
:100460000E9470170F931F93CF93DF93EC01888145
:100470009981009729F02A813B812617370788F454
:100480008B016F5F7F4F0E94AA16009761F09983DE
:1004900088831B830A832C813D81232B11F4FC016B
:1004A000108281E001C080E0DF91CF911F910F9118
:1004B0000895FC01808191810C9421160C942116E1
:1004C0003FB7F8948091EF019091F001A091F10174
:1004D000B091F20126B5A89B05C02F3F19F00196F7
:1004E000A11DB11D3FBFBA2FA92F982F8827820FBA
:1004F000911DA11DB11DBC01CD0142E0660F771F0A
:10050000881F991F4A95D1F708951F920F920FB631
:100510000F9211242F933F938F939F93AF93BF9389
:100520008091F3019091F401A091F501B091F60151
:100530003091EE0123E0230F2D3720F40196A11D09
:10054000B11D05C026E8230F0296A11DB11D209301
:10055000EE018093F3019093F401A093F501B09321
:10056000F6018091EF019091F001A091F101B0911D
:10057000F2010196A11DB11D8093EF019093F0014E
:10058000A093F101B093F201BF91AF919F918F9130
:100590003F912F910F900FBE0F901F901895EF92E3
:1005A000FF920F931F93CF93DF936115710511F4A1
:1005B00080E01CC041155105C1F07B01EC018C812C
:1005C0009D818A01080F191FB801CE010E943202D5
:1005D000882371F3288139818C819D81B701820F35
:1005E000931F0E947E171D830C8381E0DF91CF91C2
:1005F0001F910F91FF90EF900895CF93DF93EC013F
:1006000088819981009711F00E9421161982188221
:100610001D821C821B821A82DF91CF910895CF9395
:10062000DF93EC016115710561F0FB010190002081
:10063000E9F73197AF01461B570B0E94CF0281119A
:1006400003C0CE010E94FD02CE01DF91CF9108953B
:10065000EF92FF920F931F93CF93DF93EC017B01F7
:100660008A01BA010E943202811104C0CE010E94A7
:10067000FD0207C01D830C83B701888199810E9408
:100680007E17CE01DF91CF911F910F91FF90EF90D8
:100690000895CF93DF93EC016115710559F0FB01CB
:1006A00001900020E9F73197AF01461B570B0E94DC
:1006B000280302C00E94FD02CE01DF91CF91089570
:1006C000EF92FF920F931F93CF93DF93CDB7DEB7D7
:1006D000A1970FB6F894DEBF0FBECDBF7C01CB0152
:1006E000BA01F701118210821382128215821482DC
:1006F00042E0420F8E010F5F1F4F0E946D10BC0140
:10070000C7010E944903A1960FB6F894DEBF0FBE41
:10071000CDBFDF91CF911F910F91FF90EF90089582
:10072000CF93DF93CDB7DEB72C970FB6F894DEBF2B
:100730000FBECDBF0E94090860E080E00E94CD0797
:1007400086E691E00E94B6064091D6015091D7010D
:100750006091D8017091D90122E0CE0101960E94EA
:10076000600318861F821A8619861C861B8669817B
:100770007A816115710531F04D815E81CE01079658
:100780000E9428036DE671E0CE0107960E940F03D8
:100790000E94DF07CE0107960E945902CE01019602
:1007A0000E94590260E08FE00E94CD0789E991E044
:1007B0000E94B60661E080E00E94CD076091C6010C
:1007C0007091C7018091C8019091C90142E00E94D7
:1007D000F9068DE691E00E94B6062C960FB6F894C5
:1007E000DEBF0FBECDBFDF91CF910895FC01118216
:1007F000108213821282158214826115710551F0E4
:10080000FB0101900020E9F73197AF01461B570B20
:100810000C9428030895CF93DF9300D000D000D02C
:10082000CDB7DEB70E94090860E080E00E94CD07E6
:1008300060E771E0CE0101960E94F6036DED72E073
:10084000CE0101960E94E80763E971E00E940F0360
:100850000E94DF0782E791E00E94A406CE01019684
:100860000E94590261E080E00E94CD0787ED92E08E
:100870000E94DF0782E791E00E94A40626960FB649
:10088000F894DEBF0FBECDBFDF91CF910895CF9317
:10089000DF93CDB7DEB72C970FB6F894DEBF0FBE4F
:1008A000CDBF0E94090860E080E00E94CD0785E787
:1008B00091E00E94FB074091CA015091CB016091E9
:1008C000CC017091CD0121E0CE0107960E9460031A
:1008D0006BE771E0CE0101960E94F603BE01695FED
:1008E0007F4FCE0101960E94E8070E94DF07CE01EC
:1008F00001960E945902CE0107960E94590260E0BB
:100900008FE00E94CD0789E991E00E94B60661E080
:1009100080E00E94CD076091DE017091DF0180913F
:10092000E0019091E10142E00E94F9068FE791E039
:100930000E94B6066091E2017091E3018091E401AA
:100940009091E50142E00E94F90682E891E00E9460
:10095000B6062C960FB6F894DEBF0FBECDBFDF9162
:10096000CF910895CF93DF93CDB7DEB72C970FB615
:10097000F894DEBF0FBECDBF0E94090860E080E0A2
:100980000E94CD0784E891E00E94FB074091CA01D4
:100990005091CB016091CC017091CD0121E0CE014D
:1009A00007960E9460036BE771E0CE0101960E94FA
:1009B000F603BE01695F7F4FCE0101960E94E807F2
:1009C0000E94DF07CE0101960E945902CE010796D0
:1009D0000E94590260E08FE00E94CD0789E991E012
:1009E0000E94B60661E080E00E94CD076091E601BA
:1009F0007091E7018091E8019091E90142E00E9445
:100A0000F9068FE791E00E94B6066091EA017091C5
:100A1000EB018091EC019091ED0142E00E94F9061A
:100A200082E891E00E94B6062C960FB6F894DEBFDD
:100A30000FBECDBFDF91CF9108951F920F920FB6D9
:100A40000F9211242F933F934F935F936F937F9354
:100A50008F939F93AF93BF93EF93FF9387EF91E0B3
:100A60000E947B01FF91EF91BF91AF919F918F9178
:100A70007F916F915F914F913F912F910F900FBE9A
:100A80000F901F9018951F920F920FB60F9211247E
:100A90002F938F939F93EF93FF93E0910702F09131
:100AA00008028081E0910D02F0910E0282FD12C0D9
:100AB0009081809110028F5F8F73209111028217B5
:100AC00051F0E0911002F0E0E950FE4F958F8093D5
:100AD000100201C08081FF91EF919F918F912F9122
:100AE0000F900FBE0F901F901895CF92DF92EF924C
:100AF000FF921F93CF93DF93EC011F81662311F0C8
:100B0000912F01C090E0288530E0220F331F2A5832
:100B10003E4FA0E0B0E0F90145915491FA01808187
:100B20008123AD0160E070E098130FC01196CD8471
:100B3000DE84EF84F8884C155D056E057F0558F35B
:100B40003FEF2FEF8FEF9FEF03C03A2F252FCB0101
:100B5000632F722FDF91CF911F91FF90EF90DF9065
:100B6000CF900895CF92DF92EF92FF920F931F9351
:100B7000CF93DF936C017C0187E0E80EF11CC0E0AD
:100B8000D0E0062F10E0B8010C2E02C075956795D5
:100B90000A94E2F76170F70181917F010E94B20827
:100BA0002196C430D10579F7C601DF91CF911F910D
:100BB0000F91FF90EF90DF90CF900C941A02CF929C
:100BC000DF92EF92FF920F931F93CF93DF93EC018D
:100BD000F62E642F8C810E94B2088D818F3F19F010
:100BE00060E00E94B2088F850F2D10E084FF25C0C1
:100BF0006E0187E0C80ED11CE12CF12CB8010E2C3F
:100C000002C0759567950A94E2F76170F6018191CB
:100C10006F010E94B208FFEFEF1AFF0A88E0E816A2
:100C2000F10461F7CE01DF91CF911F910F91FF90F9
:100C3000EF90DF90CF900C941A02B80184E0759584
:100C400067958A95E1F7CE010E94B2056F2DCE011E
:100C5000DF91CF911F910F91FF90EF90DF90CF9098
:100C60000C94B20541E00E94DF0581E090E0089518
:100C7000CF92DF92EF92FF920E94090860E080E03D
:100C80000E94CD078AE891E00E94FB0761E080E0C6
:100C90000E94CD078CE791E00E94B606C09000014B
:100CA000D09001010D2C000CEE08FF08F7FE0FC0DC
:100CB00041E06DE284E992E00E94DF056627772734
:100CC000CB016C197D098E099F094AE003C04AE0F7
:100CD000C701B6010E94B8068BE991E0FF90EF9042
:100CE000DF90CF900C94B6060895833081F028F4FD
:100CF000813099F08230A1F008958730A9F08830D2
:100D0000B9F08430D1F4809180008F7D03C0809150
:100D100080008F7780938000089584B58F7702C01C
:100D200084B58F7D84BD08958091B0008F7703C016
:100D30008091B0008F7D8093B000089540E0682FCF
:100D400084E992E00C94DF05009769F0FC010190C2
:100D50000020E9F73197AF01481B590BBC0184E92A
:100D600092E00C940A0180E090E008950C94A406AF
:100D70008F929F92AF92BF920F931F93CF93DF9367
:100D8000CDB7DEB7A1970FB6F894DEBF0FBECDBFCB
:100D900019A2423008F44AE08E010F5D1F4F842EE5
:100DA000912CA12CB12CA50194010E946115E62F74
:100DB000B901CA0101501109EA3014F4E05D01C023
:100DC000E95CD801EC93232B242B252B61F7C80178
:100DD0000E94A406A1960FB6F894DEBF0FBECDBF49
:100DE000DF91CF911F910F91BF90AF909F908F9007
:100DF00008958F929F92AF92BF92CF92DF92EF921F
:100E0000FF920F931F93CF93DF936B017C01142FFD
:100E10009B01AC010E943415882319F08EE991E002
:100E200027C046015701E894B7F82FEF3FEF4FE78F
:100E30005FE7C501B4010E94341581110DC02FEF89
:100E40003FEF4FE75FE7C501B4010E94BF121816DC
:100E50001CF482EA91E00CC02FEF3FEF4FE75FE414
:100E6000C701B6010E942F15181684F486EA91E096
:100E7000DF91CF911F910F91FF90EF90DF90CF9076
:100E8000BF90AF909F908F900C94A4062FEF3FEFF0
:100E90004FE75FECC701B6010E94BF1287FDE6CFA6
:100EA00020E030E0A901C701B6010E94BF1287FF10
:100EB0000DC041E06DE284E992E00E94DF05F7FA9F
:100EC000F094F7F8F094C1E0D0E002C0C0E0D0E0C8
:100ED00000E060E070E080E09FE3101741F020E068
:100EE00030E040E251E40E9487140F5FF6CFA70183
:100EF00096010E941B146B017C010E9400154B019E
:100F00005C014AE00E94B806C80FD91F1123B9F14D
:100F1000C501B4010E94C4129B01AC01C701B60116
:100F20000E941A146B017C0141E06EE284E992E0B8
:100F30000E94DF05219620E030E040E251E4C70145
:100F4000B6010E9425134B015C010E9400156B0144
:100F5000E12CF12C4AE0C701B6010E94B806C80F87
:100F6000D91FC701B6010E94C4129B01AC01C50183
:100F7000B4010E941A146B017C011150E1F6CE01FC
:100F8000DF91CF911F910F91FF90EF90DF90CF9065
:100F9000BF90AF909F908F900895643008F063E009
:100FA0009091A702691710F06FEF690FE62FF0E03C
:100FB000EC56FD4F9489890F80680C949E06FC01C5
:100FC000448155816081718184E992E00C940A0129
:100FD000CF93DF93EC01FB014481558160817181E6
:100FE0000E94CF02811103C0CE010E94FD02CE01FA
:100FF000DF91CF910895CF93DF930E94A406EC0177
:1010000082E791E00E94A4068C0F9D1FDF91CF9193
:10101000089581E00E949E068BE39FE10197F1F71E
:101020000895CF92DF92EF92FF921F93CF93DF93B9
:10103000EC018E818C3009F442C018F48B30C1F081
:101040005CC08551823008F058C01A81612F6F77DB
:1010500070E0762F66278B81682B80E090E00E94FD
:10106000C4122DEC3CEC4CEC5DE30E94251341C016
:101070006A8170E080E090E00E94C4126B017C0104
:10108000CB81C7FF0AC09B01AC0160E070E080E843
:101090009FEB0E941A146B017C016C2F6F7070E043
:1010A00080E090E00E94C6122DEC3CEC4CEC5DE33D
:1010B0000E942513A70196010E941B1422C01A81C9
:1010C000612F70E080E090E00E94C4126B017C010F
:1010D0006B816F7070E080E090E00E94C6122DEC92
:1010E0003CEC4CEC5DE30E942513A70196010E94A5
:1010F0001B1417FF06C0905804C060E070E080EC3D
:101100009FE7DF91CF911F91FF90EF90DF90CF90FD
:101110000895CF93DF93282F30E0F901E058FE4F78
:101120008491F901E855FE4FD491F901EC56FE4F38
:10113000C491CC2391F081110E947506EC2FF0E050
:10114000EE0FFF1FEA58FE4FA591B491EC91ED23ED
:1011500081E090E021F480E002C080E090E0DF9147
:10116000CF9108951F93CF93DF93282F30E0F9019B
:10117000E058FE4F8491F901E855FE4FD491F901F2
:10118000EC56FE4FC491CC23C1F0162F81110E9462
:101190007506EC2FF0E0EE0FFF1FE459FE4FA5910E
:1011A000B4919FB7F894111104C08C91D095D823B5
:1011B00002C0EC91DE2BDC939FBFDF91CF911F919A
:1011C0000895AF92BF92CF92DF92EF92FF920F936A
:1011D0001F93CF93DF9300D01F92CDB7DEB78091DE
:1011E000AF020E948908892BD1F713E0115018F43F
:1011F000E12CF12C27C0C12ED12CB090AE02A090D2
:10120000AF0287E0E82EF12C00E061E08B2D0E9418
:10121000B2088A2D0E9489080E2C01C0880F0A94FA
:10122000EAF7082B60E08B2D0E94B20881E0E81AF3
:10123000F10858F7E1E0F0E0EC0FFD1FEC0DFD1DAB
:101240000083D4CF8091B00290E0E816F90674F4E0
:1012500061E08091AE020E94B20860E08091AE022F
:101260000E94B2088FEFE81AF80AECCF2B812058C1
:1012700069817A81CB01A0E0B0E0BC01CD01822B75
:101280000F900F900F90DF91CF911F910F91FF90D2
:10129000EF90DF90CF90BF90AF900895CF93DF9302
:1012A00090E0FC01E855FE4F2491FC01EC56FE4F06
:1012B0008491882361F190E0880F991FFC01EE5919
:1012C000FE4FC591D491FC01E459FE4FA591B49114
:1012D000611109C09FB7F894888120958223888383
:1012E000EC912E230BC0623061F49FB7F894888193
:1012F000322F309583238883EC912E2B2C939FBF24
:1013000006C08FB7F894E8812E2B28838FBFDF911A
:10131000CF910895CF93DF93823028F09091A3026C
:1013200098609093A3028093A7021092A80280E491
:101330008093A90280E18093AA0280E58093AB02AA
:1013400061E0809198020E944E09809199028F3F3E
:1013500019F061E00E944E0961E080919A020E94BA
:101360004E09C4E9D2E09E01245932408091A30283
:1013700084FD03C084E090E002C088E090E0219604
:10138000281739072CF461E08E810E944E09EBCFBB
:101390008BE39DE00197F1F760E0809198020E9455
:1013A000B20860E080919A020E94B208809199028E
:1013B0008F3F19F060E00E94B2088091A30284FD83
:1013C00020C063E084E992E00E94B205CBE4D6E459
:1013D000CE010197F1F763E084E992E00E94B20543
:1013E0002197F1F763E084E992E00E94B20583E57A
:1013F00092E00197F1F762E084E992E00E94B20581
:1014000015C080620E949E068BE496E40197F1F776
:101410008091A30280620E949E0683E592E001977C
:10142000F1F78091A30280620E949E068091A30240
:1014300080620E949E0684E08093A4028CE00E9459
:101440009E060E94090882E08093A50286E0DF9153
:10145000CF910C949E068F929F92AF92BF92CF92A3
:10146000DF92EF92FF926B017C010E9460024B01C0
:101470005C01C114D104E104F104F1F00E946002A6
:10148000DC01CB0188199909AA09BB09883E934060
:10149000A105B10570F321E0C21AD108E108F108F5
:1014A00088EE880E83E0981EA11CB11CC114D104E3
:1014B000E104F10419F7DDCFFF90EF90DF90CF90BA
:1014C000BF90AF909F908F9008958F929F92AF9210
:1014D000BF92CF92DF92EF92FF920F931F93CF9321
:1014E000DF93CDB7DEB7C054D1400FB6F894DEBF5E
:1014F0000FBECDBF2FB7F8944091F3015091F40186
:101500006091F5017091F6012FBFFC0101851285F4
:10151000238534856A017B01C01AD10AE20AF30AE5
:10152000E0EDCE16E7E0DE06E104F10418F4FC017C
:101530008189C2C08C01FC0141875287638774870F
:101540001482138212821182108262E085810E94CD
:101550004E0961E070E080E090E00E942B0A61E0BB
:10156000F80185810E944E0960E0F80185810E94A2
:10157000B208F80186818551823028F48BE291E12E
:101580000197F1F706C064E170E080E090E00E940E
:101590002B0A62E0F80185810E944E09F8018289D8
:1015A00090E08230910538F0880F991F880F991FBD
:1015B00005970197F1F7F89460E0C8010E9475055E
:1015C0006F3F7F4F8F4F9F4F21F4F801118A78941E
:1015D00044C061E0C8010E9475056F3F7F4F8F4F87
:1015E0009F4F99F3CE0101967C015E019FEBA91AF2
:1015F0009EEFB90A670160E0C8010E947505F60117
:10160000608371838283938361E0C8010E947505C2
:10161000F6016483758386839783F8E0CF0ED11C2F
:10162000CA14DB0441F7789420E030E0F7018080B1
:101630009180A280B3804481558166817781FFEFDC
:101640008F169F06AF06BF0631F04F3F8FEF58074A
:101650006807780721F4F801118A80E02DC0F901AC
:1016600083E0F595E7958A95E1F7E00FF11F80811A
:10167000880F84169506A606B70608F48160808355
:101680002F5F3F4FF8E0EF0EF11C2832310571F665
:10169000F801248130E04081818190E0840F911D28
:1016A0004281840F911D4381840F911D9927281732
:1016B000390789F681E0818BC05CDE4F0FB6F89464
:1016C000DEBF0FBECDBFDF91CF911F910F91FF9075
:1016D000EF90DF90CF90BF90AF909F908F90089544
:1016E000CF92DF92EF92FF92CF93DF93EC010E94B3
:1016F000650A882399F18E818B3080F18D3098F0C6
:101700008551823058F56881798176276727762759
:1017100080E090E00E94C4122DEC3CEC4CEC5DE3C8
:101720000E9425131FC0698170E080E090E00E9454
:10173000C6122DEC3CEC4CEC5DE30E9425136B01D2
:101740007C01688170E080E090E00E94C6129B01FD
:10175000AC01C701B6010E941B1404C060E070E038
:1017600080EC9FE7DF91CF91FF90EF90DF90CF90DB
:101770000895789484B5826084BD84B5816084BD09
:1017800085B5826085BD85B5816085BD80916E001F
:10179000816080936E001092810080918100826050
:1017A000809381008091810081608093810080918D
:1017B00080008160809380008091B100846080937C
:1017C000B1008091B00081608093B00080917A0078
:1017D000846080937A0080917A00826080937A009E
:1017E00080917A00816080937A0080917A0080688D
:1017F00080937A001092C100E0910702F0910802F4
:1018000082E08083E0910302F09104021082E09173
:101810000502F09106028FEC808310920F02E09196
:101820000B02F0910C0286E08083E0910902F091B6
:101830000A02808180618083E0910902F0910A02AE
:10184000808188608083E0910902F0910A028081A2
:1018500080688083E0910902F0910A0280818F7D87
:10186000808382E00E948A0962E08091C9020E941E
:101870004E092FB7F8948091F3019091F401A09153
:10188000F501B091F6012FBF805D9740A109B10924
:101890008093CD029093CE02A093CF02B093D0025A
:1018A00017E31093D60262E08091B6020E944E09BF
:1018B0002FB7F8948091F3019091F401A091F50174
:1018C000B091F6012FBF805D9740A109B1098093C7
:1018D000BA029093BB02A093BC02B093BD021093D6
:1018E000C30260E088E00E944E0961E08DE00E9442
:1018F0004E092224239438EE832E33E0932EA12C1C
:10190000B12C84EC92E00E94700B6093EA0170931A
:10191000EB018093EC019093ED0184EC92E00E9446
:10192000650A882329F084EC92E00E94110804C023
:1019300060E070E080EC9FE76093E6017093E70160
:101940008093E8019093E90181EB92E00E94700B93
:101950006093E2017093E3018093E4019093E501C9
:1019600081EB92E00E94650A882329F081EB92E0E6
:101970000E94110804C060E070E080EC9FE7609373
:10198000DE017093DF018093E0019093E10120E498
:1019900020937C0080917A00806480937A0080910B
:1019A0007A0086FDFCCF809178002091790090E04C
:1019B000922B8B3091050CF411C18B3F91056CF08B
:1019C000853F21E092070CF494C08F3E22E09207FD
:1019D0009CF185389340E4F408C0CF3F8FEFD807DF
:1019E00009F4FEC0C230D10581F48091D4019091F8
:1019F000D501019765E070E00E9439159093D501FB
:101A00008093D401C2E0D0E0E2C0C330D10581F4BC
:101A10008091D4019091D501019665E070E00E941B
:101A200039159093D5018093D401C3E0D0E0CFC0A5
:101A3000C130D10509F05AC08091D4019091D501EF
:101A400082309105B8F420E030E040E05FE360913F
:101A5000CA017091CB018091CC019091CD010E947F
:101A60001A146093CA017093CB018093CC019093B8
:101A7000CD0128C083309105B9F420E030E040E882
:101A80005FE36091C6017091C7018091C801909198
:101A9000C9010E941A146093C6017093C701809314
:101AA000C8019093C9010EC0029761F480910001B2
:101AB000909101018B3091052CF0019790930101D9
:101AC000809300018091D201882309F47BC0109299
:101AD000D20162E471E08DED92E00E9449036BE473
:101AE00071E087ED92E00E9449036CC0209709F0F5
:101AF0006EC08091D4019091D50182309105B8F4E7
:101B000020E030E040E05FE36091CA017091CB01DA
:101B10008091CC019091CD010E941B146093CA0169
:101B20007093CB018093CC019093CD014EC0833054
:101B30009105B9F420E030E040E85FE36091C60130
:101B40007091C7018091C8019091C9010E941B1436
:101B50006093C6017093C7018093C8019093C90137
:101B600034C08230910551F48091000190910101BF
:101B70000196909301018093000127C0049729F5F5
:101B80002092D2012FB7F8948091F3019091F40143
:101B9000A091F501B091F6012FBF8093CE019093F3
:101BA000CF01A093D001B093D10164E571E08DED38
:101BB00092E00E9449036DE571E087ED92E00E949A
:101BC000490303C0C1E0D0E002C0C0E0D0E066E954
:101BD00070E080E090E00E942B0A02C0CFEFDFEFC0
:101BE0000E94E1080E94C6122091DA013091DB01C7
:101BF0004091DC015091DD010E941A1420E030EC8C
:101C000045EF56E40E9487146B017C016093D60176
:101C10007093D7018093D8019093D90188E00E94F6
:101C20008908892B61F40E94E1080E94C612609322
:101C3000DA017093DB018093DC019093DD01CF3FEB
:101C40002FEFD20709F082C188E00E948908892B12
:101C500009F47CC14090EA015090EB016090EC01E6
:101C60007090ED012091C2013091C3014091C401F7
:101C70005091C501C301B2010E94BF12811175C00C
:101C80002091BE013091BF014091C0015091C1012E
:101C90006091E2017091E3018091E4019091E5018E
:101CA0000E94BF12811161C02091BA013091BB0125
:101CB0004091BC015091BD016091E6017091E70136
:101CC0008091E8019091E9010E94BF1281114DC0FD
:101CD0002091B6013091B7014091B8015091B901FE
:101CE0006091DE017091DF018091E0019091E1014E
:101CF0000E94BF12811139C02091B2013091B3010D
:101D00004091B4015091B5016091CA017091CB012D
:101D10008091CC019091CD010E94BF12811125C00C
:101D20002091AE013091AF014091B0015091B101CD
:101D30006091C6017091C7018091C8019091C9015D
:101D40000E94BF1211E0811111C0A701960160919C
:101D5000AA017091AB018091AC019091AD010E94FC
:101D6000BF12811103C010E001C011E04092C20116
:101D70005092C3016092C4017092C5018091E2014A
:101D80009091E301A091E401B091E5018093BE013F
:101D90009093BF01A093C001B093C1018091E6016F
:101DA0009091E701A091E801B091E9018093BA0117
:101DB0009093BB01A093BC01B093BD018091DE0163
:101DC0009091DF01A091E001B091E1018093B60113
:101DD0009093B701A093B801B093B9018091CA0163
:101DE0009091CB01A091CC01B091CD018093B20133
:101DF0009093B301A093B401B093B5018091C60153
:101E00009091C701A091C801B091C9018093AE0122
:101E10009093AF01A093B001B093B101C092AA0119
:101E2000D092AB01E092AC01F092AD0111118EC0E5
:101E30008091D201882309F486C02FB7F89480914D
:101E4000F3019091F401A091F501B091F6012FBF3B
:101E5000C090CE01D090CF01E090D001F090D101A0
:101E6000BC01CD016C197D098E099F09A501940162
:101E70000E946115CA01B9010E94C4120E94F9149E
:101E80002091000130910101CB01B9010E944D1553
:101E9000CB0162E070E00E944D15682F8DE00E943A
:101EA000B208C090E601D090E701E090E801F09020
:101EB000E9014090CA015090CB016090CC01709034
:101EC000CD01A3019201C701B6010E942F1587FD24
:101ED00004C060E08FE00E94B20820E030E040E003
:101EE00050E4C301B2010E941A149B01AC01C70166
:101EF000B6010E94BF1287FF04C061E08FE00E941C
:101F0000B2082091C6013091C7014091C80150919B
:101F1000C9016091D6017091D7018091D80190914B
:101F2000D9010E94BF12181674F01092D20162E417
:101F300071E08DED92E00E9449036BE471E087ED62
:101F400092E00E9449030E940C02DBCCE091D40194
:101F5000F091D501EE0FFF1FEE0FFF1FE85FFE4F60
:101F600082819381959587950190F081E02D8D5226
:101F70009E4F09955DCF87ED92E00E9459028DED4D
:101F800092E00C9459021F93CF93DF93E7EFF1E0B7
:101F90001382128288EE93E0A0E0B0E08483958300
:101FA000A683B78380E291E09183808385EC90E003
:101FB0009587848784EC90E09787868780EC90E013
:101FC000918B808B81EC90E0938B828B82EC90E004
:101FD000958B848B86EC90E0978B868B118E128E7E
:101FE000138E148E62E471E08DED92E00E94F60390
:101FF0006BE471E087ED92E00E94F603A4ECB2E09E
:1020000086E015968C9315971BE016961C931697F1
:10201000EEEAF1E0E4911796EC931797EAE9F1E024
:10202000E4911896EC93189740E85EE360E070E066
:102030001D964D935D936D937C935097A1EBB2E009
:1020400087E015968C93159716961C931697EFEAD2
:10205000F1E0E4911796EC931797EBE9F1E0E49146
:102060001896EC9318971D964D935D936D937C9302
:102070005097CCEAD2E08EE391E09983888389E09F
:102080008A838AE08B8381E08C8361E089E00E940F
:102090004E0960E08B810E944E09E4E9F2E0138270
:1020A000128282E391E0918380838CE084838FEFBE
:1020B0008583168385E0878384E0808783E081873A
:1020C00082E082871386148615861686178681E03D
:1020D000DF91CF911F910C948A09EF920F931F9378
:1020E000CF93DF93E80147FD02C034E001C034E143
:1020F000042E000C550B57FF03C051954195510913
:10210000E32E022F242FAE010E948D10CE01DF910D
:10211000CF911F910F91EF900895A9E0B0E0E3E90E
:10212000F0E10C94E9136A01122FB02E2BE3201773
:1021300020F0FF24F394F00E02C02CE3F22E0F2DBA
:1021400027E0AE014F5F5F4F0E94E711BC0149815C
:10215000842F8970813031F0E1FC06C0E0FE06C0BA
:1021600090E205C09DE203C09BE201C090E05E2DBD
:10217000507143FF3CC0911102C083E001C084E074
:10218000811718F4212F281B01C020E051110BC02A
:10219000F601822F30E2882319F031938150FBCF72
:1021A000C20ED11C20E0992329F0D6019C93F601A0
:1021B00031966F01C6010396E2FE0AC03EE4D601E5
:1021C0003C9341E411964C93119712963C9306C0B0
:1021D0003EE6F601308341E641833283FC01322F33
:1021E00040E2332309F442C041933150FACF42FF19
:1021F00044C0911102C083E001C084E0811718F44B
:10220000212F281B01C020E051110BC0F601822FA5
:1022100030E2882319F031938150FBCFC20ED11CDC
:1022200020E0992329F0D6019C93F60131966F01A5
:10223000C6010396E2FE0BC039E4D6013C933EE4AE
:1022400011963C93119736E412963C9307C039E6F9
:10225000F60130833EE6318336E63283FC01322FCD
:1022600040E2332319F041933150FBCFFC01E20FE0
:10227000F11D10828EEF9FEFA6C021E030E091119A
:1022800002C020E030E0161617061CF4FB01319660
:1022900002C0E1E0F0E02E0F3F1FBB2021F0EB2D4C
:1022A000F0E0319602C0E0E0F0E02E0F3F1FE12F9A
:1022B000F0E02E173F071CF4121B212F01C020E075
:1022C0008E2D887159F4F601822F30E2882319F09F
:1022D00031938150FBCFC20ED11C20E0992329F00D
:1022E000D6019C93F60131966F0151110BC0F60196
:1022F000822F90E3882319F091938150FBCFC20E77
:10230000D11C20E00F2D060F9A81342F307144FF2D
:1023100003C0913309F40150101624F4093018F069
:1023200008E001C001E0AB0177FF02C040E050E0EF
:10233000FB01E41BF50BA1E0B0E0AC0FBD1FEA0F01
:10234000FB1F8EE2A82E4B01801A91080B2D10E086
:102350001195019511094F3FBFEF5B0721F4D6019D
:10236000AC9211966D01641775072CF084169506D2
:1023700014F4818101C080E3415051093196D601A6
:1023800011967D014017510724F0D6018C93670107
:10239000E2CF6417750739F4963320F4953319F4B6
:1023A000311101C081E3F6018083F701822F90E2B1
:1023B000882319F091938150FBCFF701E20FF11DB3
:1023C000108280E090E02996ECE00C94051428300F
:1023D00008F027E03327DA01990F311D87FD91605E
:1023E00000966105710539F432602E5F3D9330E34C
:1023F0002A95E1F708959F3F30F080387105610517
:1024000009F03C5F3C5F3D93913008F08068911D7E
:10241000DF93CF931F930F93FF92EF92192F987F23
:102420009695E92F96959695E90FFF27EE53FF4F66
:1024300099273327EE24FF24A701E701059008948C
:10244000079428F4360FE71EF81E491F511D660F2A
:10245000771F881F991F0694A1F70590079428F409
:10246000E70EF81E491F561FC11D770F881F991FC1
:10247000661F0694A1F70590079428F4F80E491FEB
:10248000561FC71FD11D880F991F661F771F0694FF
:10249000A1F70590079420F4490F561FC71FD81FB6
:1024A000990F661F771F881F0694A9F784911095CE
:1024B000177041F0D695C79557954795F794E794CF
:1024C0001A95C1F7E8E6F0E06894159015913591FA
:1024D0006591959105907FE27395E118F10A430BA0
:1024E000560BC90BD009C0F7E10CF11E431F561F54
:1024F000C91FD01D7EF4703311F48A95E6CFE8949D
:10250000015030F0080F0AF40027021708F4202FBA
:102510002395022F7A3328F079E37D932A95E9F702
:1025200010C07D932A9589F60694979567953795FF
:1025300017951794E118F10A430B560BC90BD009F4
:1025400098F023957E9173957A3308F070E37C932D
:102550002013B8F77E9170617D9330F0839571E31D
:102560007D9370E32A95E1F71124EF90FF900F918E
:102570001F91CF91DF91992787FD909508950E9433
:10258000011308F481E00895E89409C097FB3EF434
:1025900090958095709561957F4F8F4F9F4F9923B0
:1025A000A9F0F92F96E9BB279395F695879577952E
:1025B0006795B795F111F8CFFAF4BB0F11F460FFEE
:1025C0001BC06F5F7F4F8F4F9F4F16C0882311F046
:1025D00096E911C0772321F09EE8872F762F05C05A
:1025E000662371F096E8862F70E060E02AF09A95F5
:1025F000660F771F881FDAF7880F9695879597F9EA
:102600000895990F0008550FAA0BE0E8FEEF161683
:102610001706E807F907C0F012161306E407F507D6
:1026200098F0621B730B840B950B39F40A2661F04A
:10263000232B242B252B21F408950A2609F4A140ED
:10264000A6958FEF811D811D08950E9438130C946B
:10265000A9130E949B1338F00E94A21320F0952327
:1026600011F00C9492130C94981311240C94DD1314
:102670000E94BA1370F3959FC1F3950F50E0551F58
:10268000629FF001729FBB27F00DB11D639FAA27C7
:10269000F00DB11DAA1F649F6627B00DA11D661F16
:1026A000829F2227B00DA11D621F739FB00DA11D37
:1026B000621F839FA00D611D221F749F3327A00DF1
:1026C000611D231F849F600D211D822F762F6A2F8D
:1026D00011249F5750409AF0F1F088234AF0EE0FF2
:1026E000FF1FBB1F661F771F881F91505040A9F71F
:1026F0009E3F510580F00C9492130C94DD135F3FC4
:10270000E4F3983ED4F3869577956795B795F7955A
:10271000E7959F5FC1F7FE2B880F911D96958795D2
:1027200097F9089597F99F6780E870E060E0089551
:102730009FEF80EC089500240A94161617061806D9
:102740000906089500240A941216130614060506B5
:102750000895092E0394000C11F4882352F0BB0F46
:1027600040F4BF2B11F460FF04C06F5F7F4F8F4FA9
:102770009F4F089557FD9058440F551F59F05F3FE4
:1027800071F04795880F97FB991F61F09F3F79F093
:1027900087950895121613061406551FF2CF469515
:1027A000F1DF08C0161617061806991FF1CF869597
:1027B0007105610508940895E894BB27662777277B
:1027C000CB0197F908952F923F924F925F926F92AB
:1027D0007F928F929F92AF92BF92CF92DF92EF92B1
:1027E000FF920F931F93CF93DF93CDB7DEB7CA1B32
:1027F000DB0B0FB6F894DEBF0FBECDBF09942A885D
:10280000398848885F846E847D848C849B84AA8404
:10281000B984C884DF80EE80FD800C811B81AA8191
:10282000B981CE0FD11D0FB6F894DEBF0FBECDBF5C
:10283000ED0108955058BB27AA270E9432140C942A
:10284000A9130E949B1338F00E94A21320F039F4C0
:102850009F3F19F426F40C9498130EF4E095E7FBCF
:102860000C949213E92F0E94BA1358F3BA17620717
:1028700073078407950720F079F4A6F50C94DC1310
:102880000EF4E0950B2EBA2FA02D0B01B90190018B
:102890000C01CA01A0011124FF27591B99F0593FCF
:1028A00050F4503E68F11A16F040A22F232F342F17
:1028B0004427585FF3CF469537952795A795F04065
:1028C0005395C9F77EF41F16BA0B620B730B840B7A
:1028D000BAF09150A1F0FF0FBB1F661F771F881F32
:1028E000C2F70EC0BA0F621F731F841F48F487958A
:1028F00077956795B795F7959E3F08F0B0CF93957C
:10290000880F08F09927EE0F9795879508950E94F4
:102910009B140C94A9130E94A21358F00E949B13BD
:1029200040F029F45F3F29F00C94921351110C945C
:10293000DD130C9498130E94BA1368F39923B1F332
:10294000552391F3951B550BBB27AA2762177307D5
:10295000840738F09F5F5F4F220F331F441FAA1F69
:10296000A9F335D00E2E3AF0E0E832D09150504025
:10297000E695001CCAF72BD0FE2F29D0660F771FD3
:10298000881FBB1F261737074807AB07B0E809F0B9
:10299000BB0B802DBF01FF2793585F4F3AF09E3F3E
:1029A000510578F00C9492130C94DD135F3FE4F31F
:1029B000983ED4F3869577956795B795F7959F5F81
:1029C000C9F7880F911D9695879597F90895E1E0CD
:1029D000660F771F881FBB1F621773078407BA072C
:1029E00020F0621B730B840BBA0BEE1F88F7E09587
:1029F00008950E9400156894B1110C94DD13089598
:102A00000E94C21388F09F5798F0B92F9927B751A9
:102A1000B0F0E1F0660F771F881F991F1AF0BA9582
:102A2000C9F714C0B13091F00E94DC13B1E00895F1
:102A30000C94DC13672F782F8827B85F39F0B93FE3
:102A4000CCF3869577956795B395D9F73EF4909535
:102A50008095709561957F4F8F4F9F4F08950E948D
:102A6000011308F48FEF08950E940113880B990B4E
:102A70000895AA1BBB1B51E107C0AA1FBB1FA617C5
:102A8000B70710F0A61BB70B881F991F5A95A9F717
:102A900080959095BC01CD01089597FB072E16F403
:102AA000009407D077FD09D00E94391507FC05D0A6
:102AB0003EF4909581959F4F0895709561957F4F55
:102AC0000895A1E21A2EAA1BBB1BFD010DC0AA1F6F
:102AD000BB1FEE1FFF1FA217B307E407F50720F087
:102AE000A21BB30BE40BF50B661F771F881F991F02
:102AF0001A9469F760957095809590959B01AC014B
:102B0000BD01CF010895EE0FFF1F0590F491E02D58
:102B100009940F931F93CF93DF938230910510F4A4
:102B200082E090E0E091E502F091E60220E030E002
:102B3000A0E0B0E0309719F140815181028113810A
:102B400048175907C8F08417950769F4109731F0B2
:102B500012960C93129713961C9327C00093E502CC
:102B60001093E60222C02115310519F042175307D0
:102B700018F49A01BD01EF01DF01F801DBCF211547
:102B80003105F9F0281B390B2430310580F48A8196
:102B90009B816115710521F0FB019383828304C041
:102BA0009093E6028093E502FE01329644C0FE0156
:102BB000E20FF31F819391932250310939832883C7
:102BC0003AC02091E3023091E402232B41F420919A
:102BD0000401309105013093E4022093E302209137
:102BE0000201309103012115310541F42DB73EB7A3
:102BF0004091060150910701241B350BE091E3023F
:102C0000F091E402E217F307A0F42E1B3F0B281704
:102C1000390778F0AC014E5F5F4F2417350748F055
:102C20004E0F5F1F5093E4024093E3028193919310
:102C300002C0E0E0F0E0CF01DF91CF911F910F9152
:102C40000895CF93DF93009709F481C0FC01329778
:102C500013821282A091E502B091E602109781F4EE
:102C600020813181820F931F2091E3023091E40291
:102C70002817390751F5F093E402E093E30267C0A7
:102C8000ED0120E030E0CE17DF0740F44A815B81A0
:102C90009E0141155105F1F0EA01F5CFD383C283BE
:102CA00040815181840F951FC817D90759F4888135
:102CB0009981840F951F0296918380838A819B81DD
:102CC000938382832115310529F4F093E602E09382
:102CD000E5023DC0E901FB83EA8349915991C40FA4
:102CE000D51FEC17FD0761F480819181840F951F3A
:102CF0000296E90199838883828193819B838A83E9
:102D0000E0E0F0E012968D919C911397009719F0F6
:102D1000FD01DC01F7CF8D919C9111979D012E5FF4
:102D20003F4F820F931F2091E3023091E402281756
:102D3000390769F4309729F41092E6021092E502FF
:102D400002C013821282B093E402A093E302DF91E7
:102D5000CF910895A0E0B0E0E0EBF6E10C94E7132A
:102D6000EC01009721F4CB010E948915B4C0FC014D
:102D7000E60FF71F9C0122503109E217F30708F410
:102D8000A8C0D9010D911C91119706171707B0F033
:102D90000530110508F49BC0C801049786179707F2
:102DA00008F495C002501109061B170B01931193EB
:102DB0006D937C93CF010E94211689C05B01A01AFC
:102DC000B10A4C01800E911EA091E502B091E6027D
:102DD000612C712CE12CF12C109709F446C08D91D7
:102DE0009C911197A815B905B1F56C0142E0C40E8C
:102DF000D11CCA14DB0478F14C018A189B086401C9
:102E000042E0C40ED11C1296BC9012971396AC915E
:102E1000B5E0CB16D10440F0B282A38391828082C8
:102E2000D9016D937C9309C00E5F1F4F800F911FD6
:102E3000F90191838083EB2DFA2FE114F10431F035
:102E4000D7011396FC93EE93129741C0F093E602DC
:102E5000E093E5023CC06816790608F43C017D0168
:102E600012960D90BC91A02DB7CF8091E302909166
:102E7000E40288169906E1F466167706C8F4809194
:102E8000020190910301009741F48DB79EB74091E4
:102E9000060150910701841B950BE817F907C8F448
:102EA000F093E402E093E302F901718360830FC0C1
:102EB000CB010E9489157C01009759F0A801BE0141
:102EC0000E947517CE010E942116C70104C0CE01D1
:102ED00002C080E090E0CDB7DEB7EEE00C940314C2
:102EE00081E090E0F8940C948517FB01DC0102C0AE
:102EF00001900D9241505040D8F70895FB01DC013C
:102F000001900D920020E1F7089510E0CFEDD0E0A0
:102F100004C0FE010E9483152196C03ED107C9F767
:042F2000F894FFCF53
:102F24000A000000E7028000B20400004704000029
:102F340038060000900300000B04000000000000AD
:102F44009D010A013401EA016501430157010000B2
:102F5400000032060A01170216020000000074067F
:102F64005E02507265737320555000746F20737441
:102F740061727400446F776E20746F200053544F55
:102F8400502E2E2E20003C4D41535320002067002C
:102F94003C000D0A003C444854320020543D004398
:102FA4007C0025003C44485431003C504552494F74
:102FB4004420202020202020203E002073006E6129
:0A2FC4006E00696E66006F7666000D
:107E0000112484B714BE81FFF0D085E080938100F7
:107E100082E08093C00088E18093C10086E0809377
:107E2000C20080E18093C4008EE0C9D0259A86E02C
:107E300020E33CEF91E0309385002093840096BBD3
:107E4000B09BFECF1D9AA8958150A9F7CC24DD24C4
:107E500088248394B5E0AB2EA1E19A2EF3E0BF2EE7
:107E6000A2D0813461F49FD0082FAFD0023811F036
:107E7000013811F484E001C083E08DD089C08234E0
:107E800011F484E103C0853419F485E0A6D080C0E4
:107E9000853579F488D0E82EFF2485D0082F10E0AE
:107EA000102F00270E291F29000F111F8ED06801E7
:107EB0006FC0863521F484E090D080E0DECF843638
:107EC00009F040C070D06FD0082F6DD080E0C81688
:107ED00080E7D80618F4F601B7BEE895C0E0D1E017
:107EE00062D089930C17E1F7F0E0CF16F0E7DF06D8
:107EF00018F0F601B7BEE89568D007B600FCFDCFD4
:107F0000A601A0E0B1E02C9130E011968C91119780
:107F100090E0982F8827822B932B1296FA010C0160
:107F200087BEE89511244E5F5F4FF1E0A038BF0790
:107F300051F7F601A7BEE89507B600FCFDCF97BE46
:107F4000E89526C08437B1F42ED02DD0F82E2BD052
:107F50003CD0F601EF2C8F010F5F1F4F84911BD097
:107F6000EA94F801C1F70894C11CD11CFA94CF0C13
:107F7000D11C0EC0853739F428D08EE10CD085E9AC
:107F80000AD08FE07ACF813511F488E018D01DD067
:107F900080E101D065CF982F8091C00085FFFCCF94
:107FA0009093C60008958091C00087FFFCCF809118
:107FB000C00084FD01C0A8958091C6000895E0E648
:107FC000F0E098E1908380830895EDDF803219F02E
:107FD00088E0F5DFFFCF84E1DECF1F93182FE3DFCA
:107FE0001150E9F7F2DF1F91089580E0E8DFEE27F6
:047FF000FF270994CA
:027FFE00040479
:0400000300007E007B
:00000001FF
